{
  "contractName": "Controldata",
  "abi": [
    {
      "constant": false,
      "inputs": [
        {
          "name": "_id",
          "type": "int256"
        },
        {
          "name": "_temp",
          "type": "int256"
        },
        {
          "name": "_hum",
          "type": "int256"
        }
      ],
      "name": "setData",
      "outputs": [],
      "payable": false,
      "stateMutability": "nonpayable",
      "type": "function"
    },
    {
      "constant": true,
      "inputs": [
        {
          "name": "_id",
          "type": "int256"
        }
      ],
      "name": "getTemp",
      "outputs": [
        {
          "name": "",
          "type": "int256"
        }
      ],
      "payable": false,
      "stateMutability": "view",
      "type": "function"
    },
    {
      "constant": true,
      "inputs": [
        {
          "name": "_id",
          "type": "int256"
        }
      ],
      "name": "getHum",
      "outputs": [
        {
          "name": "",
          "type": "int256"
        }
      ],
      "payable": false,
      "stateMutability": "view",
      "type": "function"
    }
  ],
  "bytecode": "0x608060405234801561001057600080fd5b506101b8806100206000396000f300608060405260043610610057576000357c0100000000000000000000000000000000000000000000000000000000900463ffffffff1680635fb425d81461005c5780637663f8f91461009d57806385fac77e146100de575b600080fd5b34801561006857600080fd5b506100876004803603810190808035906020019092919050505061011f565b6040518082815260200191505060405180910390f35b3480156100a957600080fd5b506100dc60048036038101908080359060200190929190803590602001909291908035906020019092919050505061013b565b005b3480156100ea57600080fd5b506101096004803603810190808035906020019092919050505061016f565b6040518082815260200191505060405180910390f35b6000806000838152602001908152602001600020549050919050565b8160008085815260200190815260200160002081905550806001600085815260200190815260200160002081905550505050565b6000600160008381526020019081526020016000205490509190505600a165627a7a72305820e6b99b16b7ba8e8b740478182a36f710f02b643e5b975563b37f7f3cf080eecf0029",
  "source": "pragma solidity ^0.4.24;\r\n\r\ncontract Controldata{\r\n    mapping(int => int) temp;\r\n    mapping(int => int) hum;\r\n\r\n    function setData(int _id, int _temp, int _hum) public{\r\n        temp[_id] = _temp;\r\n        hum[_id] = _hum;\r\n    }\r\n    function getTemp(int _id) public constant returns(int){\r\n        return temp[_id];\r\n    }\r\n    function getHum(int _id) public constant returns(int){\r\n        return hum[_id];\r\n    }\r\n}",
  "sourcePath": "C:\\Users\\oyj26\\eth-dapp-example\\contracts\\Controldata.sol",
  "compiler": {
    "name": "solc",
    "version": "0.4.25+commit.59dbf8f1.Emscripten.clang"
  },
  "schemaVersion": "2.0.2",
  "updatedAt": "2021-08-15T06:19:41.241Z"
}